:1000000047C100000C94472C0C94742C72C1000062
:1000100070C100006EC100006CC100006AC1000028
:1000200068C100000C94E73564C1000062C10000A3
:1000300060C100005EC100005CC100005AC1000048
:100040000C943D2A56C100000C94A12C52C1000012
:1000500050C100004EC100004CC100004AC1000068
:100060000C948C2F46C1000044332E362E310047AD
:1000700046492053656C662054657374005365745B
:1000800075700053657276696365204C6576656CA2
:10009000004D61782043757272656E740044696F1B
:1000A000646520436865636B0056656E7420526515
:1000B00071276420436865636B004261636B6C6900
:1000C00067687420547970650047726F756E64209C
:1000D000436865636B0052656C61792043686563B2
:1000E0006B005265737461727400457869740050D6
:1000F0006F776572204F6E0053656C662054657390
:1001000074004175746F20446574656374005376A0
:1001100063204C6576656C3A204C31005376632041
:100120004C6576656C3A204C320054455354204659
:1001300041494C45440045565345204552524F5283
:100140000053455256494345205245515549524561
:10015000440056454E54205245515549524544009D
:1001600044494F44452043484B204641494C45446F
:100170000047464349204641554C54004E4F2047C6
:10018000524F554E4400535455434B2052454C4119
:10019000590053746F707065640057616974696EBB
:1001A0006700536C656570696E6700436F6E6E65BE
:1001B00063746564005265616479004368617267C5
:1001C000696E6700000E1517110E000000000E0E7C
:1001D0000E00000000080C0E0C080000526573743D
:1001E000617274204E6F773F0056657273696F6E4F
:1001F00020004F70656E204556534520202020205A
:10020000202000526573657474696E672E2E2E006F
:10021000312E302E32001F1C1F1E1F1E1F1F1E1FBF
:100220001E1F00000000240027002A00000000001C
:10023000250028002B0000000000230026002900D4
:10024000040404040404040402020202020203037C
:100250000303030301020408102040800102040884
:100260001020010204081020000000070002010015
:100270000003040600000000000000006364696ED3
:100280006F70737578585B00DB1A96249D2D85314D
:1002900011241FBECFEFD8E0DEBFCDBF14BE88E172
:1002A0000FB6F89480936000109260000FBE12E0C9
:1002B000A0E0B1E0ECE8F0E702C005900D92A03DAF
:1002C000B107D9F715E0A0EDB2E001C01D92A33946
:1002D000B107E1F712E0C0E9D2E004C02297FE01C5
:1002E0000E94FE37C838D107C9F70E94C6210C9476
:1002F000443886CEFB01DC0102C005900D924150CE
:100300005040D8F70895FB01DC010D900020E9F77B
:10031000119705900D920020E1F70895FB01DC0193
:1003200005900D920020E1F70895FB01DC0141509A
:10033000504048F005900D920020C9F701C01D9271
:1003400041505040E0F70895FB01DC0104C08D915D
:100350000190801921F441505040C8F7881B990B37
:100360000895FB01DC010D900020E9F71197019041
:100370000D920020E1F70895FB01DC0101900D9240
:100380000020E1F70895BF92CF92DF92EF92FF92A3
:100390000F931F937B018C01FB010995B82EC801B7
:1003A0000196F7010995C82EC8010296F701099533
:1003B000D82EC8010396F7010995982F6B2D7C2D37
:1003C0008D2D1F910F91FF90EF90DF90CF90BF90F8
:1003D0000895DF92EF92FF920F931F937B018C01A0
:1003E000FB010995D82EC8010196F7010995982FB0
:1003F0008D2D1F910F91FF90EF90DF900895BF9288
:10040000CF92DF92EF92FF920F931F93D52EC62EBD
:10041000B72E79018C01642FF9010995C801019665
:100420006D2DF7010995C80102966C2DF70109950C
:10043000C80103966B2DF70109951F910F91FF904D
:10044000EF90DF90CF90BF900895DF92EF92FF92F0
:100450000F931F93D72E7A018C01FA010995C801D9
:1004600001966D2DF70109951F910F91FF90EF9067
:10047000DF900895AEE0B0E0E0E4F2E00C941B38C9
:100480000D891E8986E08C831A8309838FEF9FE78D
:100490009E838D839E01275E3F4FCE0101966F891B
:1004A000788DA90123D02F813885020F131FF80101
:1004B00010822E96E4E00C943738AEE0B0E0E3E62C
:1004C000F2E00C941D3885E08C838B899C899A839B
:1004D00089839E01295E3F4FCE0101966D897E89F9
:1004E000A9014CD32E96E2E00C943938ABE0B0E091
:1004F000ECE7F2E00C940D383C012B015A01FC01B1
:1005000017821682838181FD03C06FEF7FEFB9C12F
:100510009AE0892E1E010894211C311CF3012381CD
:10052000F20123FD859123FF81912F01882309F496
:10053000A5C1853239F423FD859123FF81912F01D7
:10054000853221F490E0B30181D4E8CF982FFF24C5
:10055000EE249924FFE1FF15D0F09B3269F09C3224
:1005600028F4903259F0933291F40EC09D3249F044
:10057000903369F441E024C052E0F52A84E0F82A7F
:1005800028C098E0F92A25C0E0E1FE2A22C0F7FC45
:1005900029C0892F80538A3070F4F6FE05C0989CDC
:1005A000902C1124980E15C0E89CE02C1124E80E24
:1005B000F0E2FF2A0EC09E3229F4F6FC5FC140E44F
:1005C000F42A07C09C3619F450E8F52A02C0983680
:1005D00049F4F20123FD959123FF91912F01992375
:1005E00009F0B8CF892F8554833018F080528330BA
:1005F00038F444E050E0A40EB51E5FE359830FC009
:10060000933631F0933779F0933509F052C01FC01B
:10061000F5018081898342E050E0A40EB51E61019E
:1006200001E010E011C0F501C080D180F6FC03C0EC
:100630006FEF7FEF02C0692D70E042E050E0A40E42
:10064000B51EC601B6D38C015FE7F52213C0F501D4
:10065000C080D180F6FC03C06FEF7FEF02C0692D30
:1006600070E042E050E0A40EB51EC60197D38C01A5
:1006700050E8F52AF3FE06C018C080E290E0B3010E
:10068000E5D3EA948E2D90E008171907B0F30DC05A
:10069000F601F7FC8591F7FE81916F0190E0B301BF
:1006A000D5D3E110EA94015010400115110581F7EE
:1006B000E2C0943611F0993661F5F7FE08C0F501F5
:1006C000208131814281538184E090E00AC0F501AC
:1006D000808191819C01442737FD4095542F82E011
:1006E00090E0A80EB91E9FE6F92257FF09C0509569
:1006F0004095309521953F4F4F4F5F4FE0E8FE2AE0
:10070000CA01B901A1012AE030E0E6D3D82ED218FF
:100710003FC0953729F41F2D1F7E2AE030E01DC011
:100720001F2D197F9F3661F0903720F4983509F01E
:10073000A5C00FC0903739F0983709F09FC004C0AA
:1007400028E030E00AC0106114FD146020E130E0C0
:1007500004C014FD166020E132E017FF08C0F50167
:10076000608171818281938144E050E008C0F5018D
:1007700080819181BC0180E090E042E050E0A40ED5
:10078000B51EA101A9D3D82ED2188FE7F82EF122D9
:10079000F6FE0BC05EEFF522D91438F4F4FE07C064
:1007A000F2FC05C08FEEF82202C01D2D01C0192DEC
:1007B000F4FE0DC0FE01ED0DF11D8081803319F4B2
:1007C00099EEF92208C01F5FF2FE05C003C08F2D0D
:1007D000867809F01F5F0F2DF3FC13C0F0FE0EC0EA
:1007E0001E1510F09D2C0AC09D2C9E0C911A1E2DDA
:1007F00005C080E290E0B30129D31F5F1E15C8F346
:1008000004C01E1510F4E11A01C0EE2404FF0EC04E
:1008100080E390E0B3011AD302FF1BC001FD03C0C7
:1008200088E790E00EC088E590E00BC0802F8678C6
:1008300081F001FF02C08BE201C080E2F7FC8DE293
:1008400090E0B30103D305C080E390E0B301FED292
:100850009A94D914C8F3DA94F101ED0DF11D808159
:1008600090E0B301F3D2DD20B1F705C080E290E063
:10087000B301ECD2EA94EE20C9F750CEF3016681C1
:100880007781CB012B96E2E10C942938FC0120FD05
:1008900008C023FD05C022FF02C073836283518319
:1008A00040830895EF92FF920F931F9344FF02C07D
:1008B00033E011C046FF02C034E00DC0DB01FC0193
:1008C000AA0FBB1FEE1FFF1F1094D1F76A0F7B1FEB
:1008D0008E1F9F1F31E0660F771F881F991F3150B1
:1008E000D1F77B018C01E20EF11C011D111DA80145
:1008F0009701B701CA011F910F91FF90EF900895E2
:100900000F931F93CF93DF938C01C8015DD2EC014D
:1009100097FD07C00E940238892BB9F7CE01B801B4
:10092000C1D2CE01DF91CF911F910F910895A0E028
:10093000B0E0EDE9F4E00C941538EC01C62E5A0154
:10094000122F42D2AC018B3219F08D3249F410686B
:10095000CA9409F466C0CE0137D2AC0197FD61C0DC
:100960006DEFD62ED1228D2D8073F1F44033E1F45A
:10097000CA9409F442C0CE0127D2AC0197FD3DC014
:1009800082E0D82A483711F0483551F480E4D82A5B
:10099000CA9499F1CE0118D2AC0199232CF42DC040
:1009A000D6FC02C080E1D82AEE24FF248701242F40
:1009B0002053283080F0D4FC09C02A3060F0D6FEE5
:1009C00005C02F7D822F8151863020F0CA01BE01E3
:1009D00069D210C02750C801B7014D2D63DF7B01DC
:1009E0008C0182E0D82ACA9459F0CE01EDD1AC0135
:1009F00097FFDDCFD1FC04C014C0EE24FF24870193
:100A0000D7FE08C010950095F094E094E11CF11C0D
:100A1000011D111DC501B801A7012D2D37DF81E092
:100A200001C080E0CDB7DEB7EAE00C943138A0E237
:100A3000B0E0EDE1F5E00C9411386C01A62E8A01CE
:100A40007901FE01319680E2DF011D928A95E9F776
:100A500070E030E060E040E050E04F01A1E0B0E045
:100A6000F6018381F70183FD259183FF21917F01A9
:100A7000222309F47CC02E3519F44115510569F182
:100A8000872F90E08417950744F42D3551F12D32CE
:100A900021F4332329F431E021C0332309F4622FF8
:100AA000322F832F869586958695F401E80FF11DE8
:100AB000832F87703D0102C0660C771C8A95E2F790
:100AC000208126292083361711F430E007C036171D
:100AD00010F43F5FE6CF3150E4CF71E04F5F5F4FDE
:100AE000BFCF332319F08E8180628E83772359F034
:100AF000FE0131969E012F5D3F4F8081809581934D
:100B0000E217F307D1F7BB24B3944E010894811C7C
:100B1000911CC60159D1AC0197FD21C086958695DF
:100B20008695F401E80FF11D808190E09A0127700D
:100B3000307002C0959587952A95E2F780FD04C034
:100B4000CA01B601AFD10BC00115110519F0D801CA
:100B50004D938D01AA94BB24AA20D9F602C0BB20D4
:100B600031F40115110529F0F801108202C0EE24BC
:100B7000FF24C701A096EEE00C942D38A0E0B0E071
:100B8000E4ECF5E00C9411385C016B013A01FC01D6
:100B9000178216828824DEC0812F90E00E940238DE
:100BA000892B19F0C501ACDED5C0153249F4F60128
:100BB000F3FC6591F3FE61916F01653259F415E222
:100BC000C50102D197FDD2C0181709F4C3C0B50101
:100BD00069D1D1C06A3219F0162F00E006C0F3FCCB
:100BE0001591F3FE11916F0101E099240EC002608E
:100BF000692D70E080E090E040E254DE962EF60130
:100C0000F3FC1591F3FE11916F01212F20532A302F
:100C100070F301FD03C099249A9403C0992009F44C
:100C2000AAC0183621F01C3699F4F6010BC0F60163
:100C3000F3FC6591F3FE6191683619F06F01162F90
:100C400007C008600460F3FC1591F3FE11916F0179
:100C5000112309F490C08CE792E0612F70E093D0EB
:100C6000892B09F488C0802F00FF03C0EE24FF24E5
:100C700007C0F301E080F18022E030E0620E731ED5
:100C80001E3649F4F5014681578160E070E0C701E6
:100C9000202FFCDD5FC0133689F481FD02C099244A
:100CA0009394C50191D097FD61C0E114F10419F04E
:100CB000F70181937F019A94A1F74AC01B3551F443
:100CC000C501692DA7019601B2DE6C01009709F0FC
:100CD0003FC039C0C50114DE97FD48C01F3649F139
:100CE000103728F4143619F1193629F525C01337B1
:100CF00019F0153701F51BC0C50166D0EC0197FD51
:100D000010C00E940238892B21F0CE01B501CAD053
:100D100008C0E114F10419F0F701C1937F019A941E
:100D200059F7E114F104A1F0F701108211C000623B
:100D300003C0006101C00064C501692DA701202F17
:100D4000F6DD882329F4F5018381807379F413C0DB
:100D500000FF8394F501F380F601F3FC1591F3FE97
:100D600011916F01112309F017CF05C0882019F4E4
:100D70002FEF3FEF02C0282D30E0C901CDB7DEB71D
:100D8000EEE00C942D38FC010590061621F00020B1
:100D9000D9F7C00108953197CF010895FC0105905E
:100DA000615070400110D8F7809590958E0F9F1F6D
:100DB0000895FC016150704001900110D8F78095B2
:100DC00090958E0F9F1F0895CF93DF93EC014B8179
:100DD00040FF1AC046FF0AC04F7B4B838E819F8124
:100DE00001969F838E838A81282F2BC042FF13C0D8
:100DF000E881F9818081282F332727FD309521153F
:100E0000310529F440624B832FEF3FEF1BC0319631
:100E1000F983E88311C0EA85FB85CE0109959C0121
:100E200097FF0AC09B812F5F3F4F11F080E201C006
:100E300080E1892B8B83E8CF8E819F8101969F83F0
:100E40008E8330E0C901DF91CF9108950F931F93F6
:100E5000CF93DF938C01EB018B8181FF1BC082FF5D
:100E60000DC02E813F818C819D812817390764F444
:100E7000E881F9810193F983E88306C0E885F98563
:100E8000802F0995892B31F48E819F8101969F8354
:100E90008E8302C00FEF1FEFC801DF91CF911F912A
:100EA0000F9108959C01FB01838180FF11C086FD95
:100EB0000FC09FEF2F3F390759F0228380648F7D49
:100EC00083838681978101979783868330E002C070
:100ED0002FEF3FEFC9010895FA01AA27283051F1F9
:100EE000203181F1E8946F936E7F6E5F7F4F8F4F5B
:100EF0009F4FAF4FB1E03ED0B4E03CD0670F781FBA
:100F0000891F9A1FA11D680F791F8A1F911DA11D9E
:100F10006A0F711D811D911DA11D20D009F46894D7
:100F20003F912AE0269F11243019305D3193DEF67F
:100F3000CF010895462F4770405D4193B3E00FD035
:100F4000C9F7F6CF462F4F70405D4A3318F0495D20
:100F500031FD4052419302D0A9F7EACFB4E0A69503
:100F60009795879577956795BA95C9F70097610525
:100F7000710508959B01AC010A2E0694579547957B
:100F800037952795BA95C9F7620F731F841F951F70
:100F9000A01D08959C01F999FECF32BD21BDF89A9C
:100FA00080B508959C01F999FECF1FBA32BD21BDCD
:100FB00060BD0FB6F894FA9AF99A0FBE0895FC0135
:100FC0008FEF82A711A680E49FE190938B0080931E
:100FD0008A0011821082089581E08093D8030895D9
:100FE000FC0180818823E1F09181992349F4828179
:100FF000882331F48381882319F48481882381F044
:101000008381981721F492818481981749F0809107
:10101000B503882329F08CEA93E060E00C94EA3170
:101020000895FC01F999FECF84E090E092BD81BD66
:10103000F89A80B58F3F79F41082F999FECF1FBAE4
:1010400084E090E092BD81BD10BC0FB6F894FA9A8E
:10105000F99A0FBE01C08083F999FECF85E090E038
:1010600092BD81BDF89A80B58F3F79F41182F999CC
:10107000FECF1FBA85E090E092BD81BD10BC0FB6D7
:10108000F894FA9AF99A0FBE01C08183F999FECFBC
:1010900086E090E092BD81BDF89A80B58F3F89F4DB
:1010A00085E08283F999FECF1FBA86E090E092BD79
:1010B00081BD85E080BD0FB6F894FA9AF99A0FBE0B
:1010C00001C08283F999FECF87E090E092BD81BD97
:1010D000F89A80B58F3F89F486E08383F999FECF33
:1010E0001FBA87E090E092BD81BD86E080BD0FB65B
:1010F000F894FA9AF99A0FBE01C08383F999FECF4A
:1011000088E090E092BD81BDF89A80B58F3F89F468
:1011100087E38483F999FECF1FBA88E090E092BDFF
:1011200081BD87E380BD0FB6F894FA9AF99A0FBE95
:1011300001C0848360E67AEE80E090E04CEE57E0F8
:101140000E947B350C9486350F931F93CF93DF93CA
:10115000EC0189018985882339F0CE010E942D3266
:10116000CE01B8010E940E2EDF91CF911F910F91F9
:101170000895FC018185882319F0CF010C940E2E6F
:101180000895CF93DF93EC01462F60E00E942D324B
:101190008985882339F06091F2017091F301CE01C5
:1011A0000E940E2EDF91CF910895CF93DF93EC0133
:1011B0008C818F5F8C83823008F01C828CEA93E0F4
:1011C00061E070E0DEDFEC81F0E0EE0FFF1FE15C3C
:1011D000FD4F208131818CEA93E060E070E041E0D6
:1011E00050E0B2DFDF91CF910895CF93DF93EC0110
:1011F0008C818F5F8C83823008F01C828CEA93E0B4
:1012000061E070E0BEDF8CEA93E060E041E00E94C4
:101210002D3280916F039C8184FD03C0992319F0C6
:1012200007C0992329F08CEA93E064EF71E0A1DF15
:10123000EC81F0E0EE0FFF1FE15CFD4F60817181FA
:101240008CEA93E096DFDF91CF910895CF93DF93FF
:10125000EC018C818F5F8C83823008F01C828CEAD9
:1012600093E061E070E08DDF8CEA93E060E041E0C4
:101270000E942D3280916F039C8183FD03C09923CE
:1012800019F007C0992329F08CEA93E064EF71E02C
:1012900070DFEC81F0E0EE0FFF1FE15CFD4F60813D
:1012A00071818CEA93E065DFDF91CF910895CF9350
:1012B000DF93EC018C818F5F8C83823008F01C827D
:1012C0008CEA93E061E070E05CDF8CEA93E060E040
:1012D00041E00E942D3280916F039C8182FD03C00A
:1012E000992319F007C0992329F08CEA93E064EF61
:1012F00071E03FDFEC81F0E0EE0FFF1FE15CFD4F9E
:10130000608171818CEA93E034DFDF91CF910895A1
:10131000CF93DF93EC018C818F5F8C83823008F058
:101320001C828CEA93E061E070E02BDF8CEA93E0B2
:1013300060E041E00E942D3280916F039091700334
:101340002C8191FD03C0222319F007C0222329F02C
:101350008CEA93E064EF71E00CDFEC81F0E0EE0FDB
:10136000FF1FE15CFD4F608171818CEA93E001DF3A
:10137000DF91CF910895CF93DF93EC018C818F5F44
:101380008C83823008F01C828CEA93E061E070E08C
:10139000F8DE8CEA93E060E041E00E942D3280911B
:1013A0006F039C8181FD03C0992319F007C0992325
:1013B00029F08CEA93E064EF71E0DBDEEC81F0E091
:1013C000EE0FFF1FE15CFD4F608171818CEA93E0BD
:1013D000D0DEDF91CF910895CF93DF93EC018C8124
:1013E0008F5F8C83833008F01C828CEA93E061E08D
:1013F00070E0C7DE8CEA93E060E041E00E942D32AD
:1014000080916F0380FD02C021E001C022E030E046
:101410008C8190E001962817390729F48CEA93E033
:1014200064EF71E0A6DEEC81F0E0EE0FFF1FE25EFC
:10143000FD4F608171818CEA93E09BDEDF91CF915B
:101440000895CF93DF93EC018C818F5F8C83823082
:1014500008F01C828CEA93E061E070E092DE8CEA96
:1014600093E060E041E00E942D328CEA93E064EF6B
:1014700071E07FDEEC81F0E0EE0FFF1FEC5DFD4FD1
:10148000608171818CEA93E074DEDF91CF910895E1
:101490000F931F93DF93CF9300D000D000D0CDB730
:1014A000DEB78C010E94023429833A834B835C832C
:1014B0006D837E83ABECB3E0FE01319686E0019054
:1014C0000D928150E1F78DB79EB740970FB6F89413
:1014D0009EBF0FBE8DBFEDB7FEB73196ADB7BEB79D
:1014E00012961C930E93119780E091E09383828370
:1014F0008091CB03848315828091CC0386831782ED
:101500008091CD03808711868091CE0382871386D8
:101510008091CF03848715868091D00386871786B4
:101520000E943A028DB79EB740960FB6F8949EBFC0
:101530000FBE8DBF26960FB6F894DEBF0FBECDBF8F
:10154000CF91DF911F910F910895CF93DF93EC011D
:101550008C818F5F8C839E81981708F41C828CEAA3
:1015600093E061E070E00DDE8CEA93E060E041E042
:101570000E942D328C81EF81F885E80FF11D90914A
:1015800083038081981729F48CEA93E064EF71E07B
:10159000F0DD8C81EF81F885E80FF11D608180918D
:1015A000B503882339F08CEA93E070E04AE050E01C
:1015B0000E94FF2E8CEA93E062E171E0DADDDF91B8
:1015C000CF910895FC0194818581981750F4E92FFB
:1015D000F0E0EE0FFF1FEA50FE4F0190F081E02D8A
:1015E0000AC08091B503882321F08CEA93E00E9421
:1015F000BF32E0E0F0E0CF010895CF93DF93EC013C
:101600008CEA93E00E949E3280FF77C021E00AC0FE
:1016100089819A81AB81BC810097A105B10509F44C
:10162000188220E03881332359F0313009F040C06E
:1016300089819A81AB81BC810097A105B105C1F177
:10164000222389F189819A81AB81BC810097A10510
:10165000B10541F4332331F40E94852A69837A83EA
:101660008B839C830E94852A9B01AC0189819A818E
:10167000AB81BC81281B390B4A0B5B0B888188230B
:1016800041F4243631054105510508F43BC081E0A1
:1016900008C08130B9F5245F31404040504090F19E
:1016A00082E088832FC019821A821B821C822AC082
:1016B000222341F18D819E81AF81B8850097A105DC
:1016C000B10501F13230F1F40E94852A2D813E816D
:1016D0004F815885621B730B840B950B60517742C9
:1016E0008040904078F01D821E821F82188688EE0E
:1016F00093E060E00E94C32405C08881823009F035
:1017000090CF86CFDF91CF91089581E160E00E9474
:10171000532B81E161E00C94792BCF93DF93EC01A3
:10172000A8951A82198282E00E94D12B892B19F088
:1017300081E0888301C01882DF91CF9108950F93D3
:101740001F938C0188E060E00E94792B87E060E0C5
:101750000E94792B89E060E00E94792BF801868D48
:101760008F7B868F0E943D36035C1F4FF80160839C
:101770007183828393830D5310400E94852AF80160
:1017800065AB76AB87AB90AF0F5A1F4FF801108255
:101790001182128213821F910F9108958091570335
:1017A000882321F081E0809356030895809171038E
:1017B00080688093710383E593E0C1DF10928B0012
:1017C00010928A0082E090E0909354038093530338
:1017D00081E08093550308950F931F938C0188E057
:1017E00061E00E94792B87E061E00E94792B89E01B
:1017F00061E00E94792BF801868D8064868F0E94BB
:101800003D36F80161AF72AF83AF94AF0E94852A75
:10181000F80161AB72AB83AB94AB1F910F9108954C
:10182000AF92BF92CF92DF92EF92FF920F931F93EE
:10183000CF93DF936B015A011FEFE12E13E0F12EDE
:1018400000E010E0C0E0D0E081E00E94312B0817FA
:10185000190714F48C0104C08E159F050CF47C014B
:101860002196C436D10581F7F601F182E082F501B7
:1018700011830083DF91CF911F910F91FF90EF9023
:10188000DF90CF90BF90AF9008952F923F924F92EC
:101890005F926F927F928F929F92AF92BF92CF9200
:1018A000DF92EF92FF920F931F93DF93CF93CDB709
:1018B000DEB72E970FB6F894DEBF0FBECDBF9C8764
:1018C0008B87A8950E94852A69837A838B839C8362
:1018D0002224332421011E861D861F821886198624
:1018E0001A86EE24EA94FE2C87011E821D8295C082
:1018F00080E00E94312B3C01882477FC8094982C56
:101900002FEFE2162FEFF2062FEF02072FEF12074D
:1019100081F190E031E0E31632E0F30630E00307B6
:1019200030E013070CF091E080E041E0641642E003
:10193000740640E0840640E094060CF081E09817BD
:10194000C1F0D601C5012F81388549855A85821B92
:10195000930BA40BB50B0697A105B10550F04D856F
:101960005E854F5F5F4F5E874D87AF82B886C986C1
:10197000DA868D859E858130910508F44CC08330D0
:10198000910520F0039709F046C014C0A40193010B
:101990002050324040405040CA01B9010E94943763
:1019A000260E371E481E591EED81FE813196FE839C
:1019B000ED8331C08D819E819C0140E050E0C201E9
:1019C000B1010E94BF3779018A0181E0A82EB12CB4
:1019D000C12CD12C05C00894A11CB11CC11CD11C68
:1019E000C601B501A60195010E949437E616F706D7
:1019F0000807190780F7EB85FC85E35BFF4FFC8741
:101A0000EB870894A108B108C108D108A082B1826F
:101A1000C282D3821FC0840173010E94852A5B01A8
:101A20006C01DC01CB0129813A814B815C81821BF5
:101A3000930BA40BB50B8397A105B10508F458CF00
:101A40004B855C85435B5F4FFA01108211821282E5
:101A50001382A8952E960FB6F894DEBF0FBECDBFA9
:101A6000CF91DF911F910F91FF90EF90DF90CF907A
:101A7000BF90AF909F908F907F906F905F904F90AE
:101A80003F902F900895FC01848580FF02C0611172
:101A900067E0CF010C947832DC015F96ECE0F2E075
:101AA0008AE001900D928150E1F708950F931F9302
:101AB000CF93DF938C0181E0F8018283118286E06D
:101AC00061E00E94532BC0E0D0E086E061E00E941C
:101AD000792B80E49FE10E94EC2A86E060E00E947E
:101AE000792B80E49FE10E94EC2AF8018181882310
:101AF00021F42196C233D10541F782E00E94D12B17
:101B00000197D9F3F8011282DF91CF911F910F91C4
:101B10000895DF92EF92FF920F931F93CF93DF937D
:101B2000FC01262F142FF52E8185882359F1DE2EF6
:101B3000EF2ECF0160E0422F0E942D32A12FBF2D4A
:101B4000FD0101900020E9F731970E2F011B0131B3
:101B500008F000E1812F9F2D9C01E90110E006C0F3
:101B60008D2D9E2D69910E94EA311F5F1017C0F3E1
:101B7000102F06C08D2D9E2D60E20E94EA311F5F5E
:101B80001031C0F3DF91CF911F910F91FF90EF9033
:101B9000DF9008950F931F93CF93DF93EC011C8286
:101BA00080916F0380FD04C088E292E041E003C0B1
:101BB0008FE292E042E098878F831D821E8202C0EE
:101BC0009F5F9E83AF81B8859E81FD01E90FF11D66
:101BD00080818823A9F7292F21502E83A20FB11DC0
:101BE0008C918D833091830390E0EF81F885E90F2C
:101BF000F11D8081831711F49C8303C09F5F291717
:101C0000A0F7413019F024E131E002C027E131E0D2
:101C100000D000D000D0EDB7FEB7319603E113E05D
:101C2000ADB7BEB712961C930E9311978AE191E05F
:101C300093838283358324830E943A02EDB7FEB7F3
:101C400036960FB6F894FEBF0FBEEDBF8CEA93E058
:101C500060E070E0A8015DDF00D000D000D0ADB73B
:101C6000BEB71196EDB7FEB71283018389E291E00A
:101C700013969C938E9312978C81EF81F885E80FD1
:101C8000F11D808114968C93149715961C920E94D6
:101C90003A028DB79EB706960FB6F8949EBF0FBE58
:101CA0008DBF8CEA93E061E070E0A80132DFDF9144
:101CB000CF911F910F910895CF92DF92EF92FF92F3
:101CC0000F931F938C01D62EC42E9DE0E92EF12C8C
:101CD000E00EF11EF801468DC701B90150E00E94E7
:101CE0009501F801868DE80FF11D1486C8016D2D50
:101CF0004C2D0E942D32C801B7010E940E2E1F915B
:101D00000F91FF90EF90DF90CF900895CF92DF92E8
:101D1000EF92FF920F931F938C016B01BA012DE09C
:101D2000E22EF12CE80EF91EFC01468DC70150E0B1
:101D30000E949501F801868DE80FF11D1486C801F7
:101D4000B601A701E6DE1F910F91FF90EF90DF90A3
:101D5000CF9008950F931F93FC0114820CEA13E0B7
:101D6000C80160E070E04CED51E0D0DF40913F02EF
:101D700050914002C80161E070E0CBDE1F910F91ED
:101D80000895EF92FF920F931F938C015CEAE52E6A
:101D900053E0F52EFC0142815381C70160E070E001
:101DA000B5DF20916F033091700344E0369527959D
:101DB0004A95E1F72170F801248300D000D000D0CB
:101DC000ADB7BEB7119603E113E0EDB7FEB71283CE
:101DD00001838EE291E013969C938E931297E22FEB
:101DE000F0E0EE0FFF1FE15CFD4F808191811596C1
:101DF0009C938E9314970E943A028DB79EB70696D5
:101E00000FB6F8949EBF0FBE8DBFC70161E070E0B2
:101E1000A8017FDE1F910F91FF90EF900895EF9240
:101E2000FF920F931F938C01ECEAEE2EE3E0FE2E5F
:101E3000FC0142815381C70160E070E067DF2091BF
:101E40006F033091700373E0369527957A95E1F72B
:101E50002170F801248300D000D000D0ADB7BEB708
:101E6000119603E113E0EDB7FEB7128301838EE212
:101E700091E013969C938E931297E22FF0E0EE0F71
:101E8000FF1FE15CFD4F8081918115969C938E939D
:101E900014970E943A028DB79EB706960FB6F89433
:101EA0009EBF0FBE8DBFC70161E070E0A80131DEAB
:101EB0001F910F91FF90EF900895EF92FF920F9373
:101EC0001F938C012CEAE22E23E0F22EFC014281CA
:101ED0005381C70160E070E019DF20916F033091FA
:101EE000700336952795369527952170F801248340
:101EF00000D000D000D0ADB7BEB7119603E113E01B
:101F0000EDB7FEB7128301838EE291E013969C93A6
:101F10008E931297E22FF0E0EE0FFF1FE15CFD4F72
:101F20008081918115969C938E9314970E943A021A
:101F30008DB79EB706960FB6F8949EBF0FBE8DBFA5
:101F4000C70161E070E0A801E4DD1F910F91FF90EF
:101F5000EF900895EF92FF920F931F93CF93DF932B
:101F60008C014CEAE42E43E0F42EDC0112964D91F4
:101F70005C911397C70160E070E0C8DEE0917003E8
:101F8000E695E170E801EC8300D000D000D0ADB759
:101F9000BEB7119603E113E0CDB7DEB71A8309830C
:101FA0008EE291E013969C938E931297F0E0EE0FE1
:101FB000FF1FE15CFD4F8081918115969C938E936C
:101FC00014970E943A02EDB7FEB736960FB6F89412
:101FD000FEBF0FBEEDBFC70161E070E0A80199DD53
:101FE000DF91CF911F910F91FF90EF900895EF92A5
:101FF000FF920F931F938C017CEAE72E73E0F72E7C
:10200000FC0142815381C70160E070E07FDE2091D6
:102010006F0330917003369527952170F801248362
:1020200000D000D000D0ADB7BEB7119603E113E0E9
:10203000EDB7FEB7128301838EE291E013969C9375
:102040008E931297E22FF0E0EE0FFF1FE15CFD4F41
:102050008081918115969C938E9314970E943A02E9
:102060008DB79EB706960FB6F8949EBF0FBE8DBF74
:10207000C70161E070E0A8014CDD1F910F91FF9056
:10208000EF900895CF93DF93EC014A815B818CEA56
:1020900093E060E070E03ADE80916F0385FD02C05E
:1020A0001C8206C080FD02C081E001C082E08C83FA
:1020B0008CEA93E061E070E064D88CEA93E060E041
:1020C00070E041E050E024EF31E03ED8EC81F0E0F8
:1020D000EE0FFF1FE25EFD4F608171818CEA93E09D
:1020E00048D8DF91CF9108950F931F93CF93DF933B
:1020F000EC014A815B818CEA93E060E070E006DEEF
:10210000E0E080911203813009F0E1E0EC8300D03F
:1021100000D000D0ADB7BEB7119603E113E0CDB744
:10212000DEB71A8309838EE291E013969C938E9317
:102130001297F0E0EE0FFF1FEC5DFD4F8081918163
:1021400015969C938E9314970E943A028DB79EB772
:1021500006960FB6F8949EBF0FBE8DBF8CEA93E033
:1021600061E070E0A801D5DCDF91CF911F910F9164
:102170000895DC0114968C9114978F5F14968C93BC
:10218000149715969C911597981718F414961C920D
:1021900014971496EC91149715968C91E81718F0F3
:1021A0004AEE50E00AC0F0E0EE0FFF1FEA50FE4F8B
:1021B0000190F081E02D428153818CEA93E061E04F
:1021C00070E0A4CD0F931F93FC0114820CEA13E07E
:1021D00042815381C80160E070E098DDE091F60132
:1021E000F091F70142815381C80161E070E08EDD1A
:1021F0001F910F910895EF92FF920F931F938C01FF
:102200009B017A0160E070E0A90180DDC80161E016
:1022100070E0A7017BDD1F910F91FF90EF90089573
:102220006F927F928F929F92AF92BF92CF92DF92E6
:10223000EF92FF920F931F93CF93DF936C01A895BA
:1022400080E49FE190938B0080938A00F6011182D5
:10225000108285E061E00E94792B8CEA93E06FEEBA
:1022600070E048EF50E0C7DFF601848D85FF03C0C2
:10227000C0E0D0E003C166E970E080E090E00E9439
:10228000932A81E00E94312B10928B0010928A00D9
:1022900022E030E0F60131832083855893400CF42E
:1022A000E7C083E00E94D12B8C0184E00E94D12BF7
:1022B0007C0188E061E00E94792B89E061E00E9466
:1022C000792B6AEF70E080E090E00E94932A83E02F
:1022D0000E94D12B3C0184E00E94D12B4C0188E06C
:1022E00060E00E94792B89E060E00E94792B6AEF20
:1022F00070E080E090E00E94932A87E061E00E9415
:10230000792B6AEF70E080E090E00E94932A83E0EE
:102310000E94D12B5C0184E00E94D12BEC0187E06C
:1023200060E00E94792B6AEF70E080E090E00E940C
:10233000932A000F111F0E0D1F1D0330110509F008
:102340005EC09301220F331F280D391DA501440FD4
:10235000551F4C0F5D1F2330310534F421303105FA
:102360008CF5232B31F0EFC02330310509F0EBC0A1
:1023700011C04330510519F4C2E0D0E002C0C0E002
:10238000D0E0F601848D84FD3FC04330510509F053
:10239000D7C03AC0F601848D83FD06C04330510595
:1023A00019F4C3E0D0E008C04115510519F4C2E0AA
:1023B000D0E002C0C0E0D0E0415050404230510572
:1023C00018F525C0F601848D84FD06C04330510503
:1023D00049F0C4E0D0E008C04330510519F0C0E036
:1023E000D0E002C0C1E0D0E02130310521F442301C
:1023F000510551F49FC04130510531F49EC0F601A2
:10240000848D84FF9DC09FC0C130D10551F48CEAFA
:1024100093E062E071E04EE051E0EDDEC1E0D0E03B
:102420000AC0C230D10539F48CEA93E062E071E071
:102430004CE151E0E0DECE010397029720F48CEAF4
:1024400093E061E020DBC330D10539F48CEA93E0FE
:102450006AE271E04CE751E009C0C430D10529F5CA
:102460008CEA93E06AE271E046E851E0C4DE1DC008
:10247000F601868D8160868FC1E0D0E0F601848D03
:1024800084FD13C083E00E94D12B892B29F083E0C7
:102490000E94D12B892B49F48CEA93E06AE271E027
:1024A00046E851E0A8DEC4E0D0E0C330D105C8F46E
:1024B000F601848D958D91FD14C0C6010296F6DA61
:1024C000F6018381882369F48CEA93E061E0DBDA2A
:1024D0008CEA93E06AE271E041E751E08CDEC5E00E
:1024E000D0E0CE010397039738F48DE060E00E94BE
:1024F000792B85E061E002C085E060E00E94792BE5
:1025000080E49FE190938B0080938A00F601118212
:102510001082A8958C2FDF91CF911F910F91FF9082
:10252000EF90DF90CF90BF90AF909F908F907F9073
:102530006F900895C2E0D0E067CFC2E0D0E071CFE5
:10254000C4E0D0E06ECFC0E0D0E06BCF8CEA93E087
:1025500061E070E043E052E0D9DB2EE088E190E0FA
:102560000FB6F894A895809360000FBE209360008A
:102570006CED75E080E090E00C94932A0F931F932C
:102580008C018CEA93E060E070E041E050E024EFE1
:1025900031E00E94A408D8011496EC91F0E0EE0F0F
:1025A000FF1FE15CFD4F608171818CEA93E00E9426
:1025B000B90864EF71E080E090E00E94932AF8018E
:1025C0008481882311F4C2DFFFCF80E090E01F9167
:1025D0000F9108950F931F93CF93DF93EC0189859B
:1025E000882389F08E01035F1F4F4E8DC80150E094
:1025F0000E9495018E8DFE01E80FF11D1486CE011B
:10260000B8010E940E2EDF91CF911F910F91089576
:102610006F927F928F929F92AF92BF92CF92DF92F2
:10262000EF92FF920F931F93DF93CF93CDB7DEB757
:102630002C970FB6F894DEBF0FBECDBF4C01142F00
:1026400070907C0380916F0380FD03C066246394C7
:1026500002C022E0622E80917D03781609F497C4AF
:102660008DB79EB708970FB6F8949EBF0FBE8DBF6B
:10267000EDB7FEB7319683E193E0ADB7BEB71296E2
:102680009C938E93119786E192E093838283648278
:10269000158280918303868317820E943A02EDB7E8
:1026A000FEB738960FB6F894FEBF0FBEEDBFF5E04B
:1026B0007F1609F4F5C1F715A0F082E0781609F449
:1026C0000AC1871528F091E0791609F084C221C06B
:1026D000A3E07A1609F4B1C1B4E07B1609F07BC21D
:1026E000CDC1E8E07E1609F41BC2E71548F0F6E01C
:1026F0007F1609F4E7C187E0781609F06CC2F9C1CA
:102700009EEF791609F440C2AFEF7A1609F063C262
:102710001FC27092D9038091DA03813009F061C041
:102720006091DF037091E0038091E1039091E203F7
:1027300020E13EE040E050E00E94BF378091DB03A3
:102740009091DC03A091DD03B091DE03280F391FC7
:102750004A1F5B1F2093DB033093DC034093DD03B0
:102760005093DE03F999FECF1FBA8DE090E092BD41
:1027700081BD20BD0FB6F894FA9AF99A0FBEF99967
:10278000FECF1FBA8EE090E092BD81BDBB27A52F82
:10279000942F832F80BD0FB6F894FA9AF99A0FBE42
:1027A000F999FECF1FBA8FE090E092BD81BDCA01BA
:1027B000AA27BB2780BD0FB6F894FA9AF99A0FBEE4
:1027C000F999FECF1FBA80E190E092BD81BD852FBF
:1027D0009927AA27BB2780BD0FB6F894FA9AF99AD1
:1027E0000FBE1092DA038DE061E00E94792B85E044
:1027F00060E00E94792BC40162E045D9F401818533
:10280000882319F0C4010E94BF32C40160E040E097
:102810000E942D3281ED93E00E94F007C40165EB28
:1028200071E0D8DE13E1E12E13E0F12EC4016AE07D
:1028300070E040E050E097010E94A4088DB79EB779
:1028400008970FB6F8949EBF0FBE8DBF0DB71EB789
:102850000F5F1F4FADB7BEB71296FC92EE92119765
:1028600082E391E0F801938382836091DF037091AA
:10287000E0038091E1039091E20320E13EE040E03B
:1028800050E00E94BF37D80114962D933D934D938D
:102890005C9317970E943A02EDB7FEB738960FB6D1
:1028A000F894FEBF0FBEEDBFC40160E070E041E0F0
:1028B00050E097010E94A4088DB79EB708970FB605
:1028C000F8949EBF0FBE8DBF0DB71EB70F5F1F4F91
:1028D000ADB7BEB783C081E08093DA038091D9039E
:1028E000813041F41092DF031092E0031092E10373
:1028F0001092E2031092D9038DE061E00E94792BDF
:1029000085E061E00E94792BC40163E0BCD8D4016A
:1029100019968C91882319F0C4010E94BF32C4011A
:1029200060E040E00E942D3281ED93E00E94F007CC
:10293000C4016BEA71E04EDEB3E1EB2EB3E0FB2E97
:10294000C4016AE070E040E050E097010E94A408F2
:10295000EDB7FEB738970FB6F894FEBF0FBEEDBFC8
:102960000DB71EB70F5F1F4FF282E18282E391E045
:10297000D80113969C938E9312976091DF03709108
:10298000E0038091E1039091E20320E13EE040E02A
:1029900050E00E94BF37F801248335834683578374
:1029A0000E943A028DB79EB708960FB6F8949EBF64
:1029B0000FBE8DBFC40160E070E041E050E09701C0
:1029C0000E94A408ADB7BEB718970FB6F894BEBF63
:1029D0000FBEADBF0DB71EB70F5F1F4F1296FC9213
:1029E000EE92119789E391E0F801938382836091DD
:1029F000DB037091DC038091DD039091DE0328EE10
:102A000033E040E050E00E94BF37D80114962D9388
:102A10003D934D935C9317970E943A02EDB7FEB732
:102A200038960FB6F894FEBF0FBEEDBFC40167E045
:102A300070E041E050E09701CBC08DE060E00E9483
:102A4000792B85E060E00E94792BC40166E01BD8F9
:102A5000D40119968C91882319F0C4010E94BF32C9
:102A6000C40160E040E00E942D3281ED93E00E94BD
:102A7000F007C4016BEB71E0ADDDBCC08DE060E040
:102A80000E94792B85E061E00E94792BC40161E00E
:102A90000E94430DC40166E371E042E551E056C077
:102AA0008DE060E00E94792B85E061E00E94792B47
:102AB000C40161E00E94430DC40166E371E040E699
:102AC00051E044C08DE060E00E94792B85E061E038
:102AD0000E94792BC40161E00E94430D112319F477
:102AE00066E371E002C061E471E0C40141E751E0D6
:102AF0002DC08DE060E00E94792B85E061E00E94AE
:102B0000792BC40161E00E94430D112319F466E39F
:102B100071E002C061E471E0C4014CE751E016C00D
:102B20008DE060E00E94792B85E061E00E94792BC6
:102B3000C40161E00E94430D112319F466E371E0C2
:102B400002C061E471E0C40146E851E054DB4EC0CC
:102B50008DE060E00E94792B85E061E00E94792B96
:102B6000C40165E00E94430DF4018185882319F0BA
:102B7000C4010E94BF32C40160E040E00E942D32D7
:102B8000C40162E971E01CC08DE061E00E94792B14
:102B900085E061E00E94792BC40165E00E94430D4D
:102BA000D40119968C91882319F0C4010E94BF3278
:102BB000C40160E040E00E942D32C40162EA71E08D
:102BC00009DDC4016AE070E040E050E023E133E059
:102BD0000E94A4080BC08DE060E00E94792B85E084
:102BE00061E00E94792BB3E07B1621F080917103A4
:102BF00084FF91C0F401848587FF8DC08F7784871F
:102C0000A090A403B090A503C090A603D090A70302
:102C100080916F03E090DF03F090E0030091E10307
:102C20001091E20380FFB7C1C601B50120EF30E08B
:102C300040E050E00E94943728EE33E040E050E05E
:102C40000E94BF37E20EF31E041F151FE092DF0340
:102C5000F092E0030093E1031093E203F8EEAF1665
:102C6000F3E0BF06F0E0CF06F0E0DF0608F444C072
:102C7000C601B50128EE33E040E050E00E94BF37C6
:102C80008901C601B50128EE33E040E050E00E9422
:102C9000BF3724E630E040E050E00E94BF372A30E2
:102CA000310524F00F5F1F4F20E030E08DB79EB755
:102CB00008970FB6F8949EBF0FBE8DBFEDB7FEB755
:102CC000319683E193E0ADB7BEB712969C938E9395
:102CD000119781E491E09383828315830483378382
:102CE00026830E943A02EDB7FEB738960FB6F894E5
:102CF000FEBF0FBEEDBF06C083E193E069E471E063
:102D00000E94BC01C4016AE070E040E050E023E1B1
:102D100033E00E94A4080E9402342F833887498739
:102D20005A876B877C87DE011196FE01379686E015
:102D300001900D928150E1F7F3E07F1609F41DC177
:102D40008EEF781609F019C1CE0101966BEC73E095
:102D500046E050E00E94A401009709F40EC1F82C4F
:102D6000E92CC40160E040E00E942D3281ED93E047
:102D70000E94F0078091D103882319F462EA71E080
:102D800002C06AE971E0C40125DCADB7BEB71A978D
:102D90000FB6F894BEBF0FBEADBFEDB7FEB731960C
:102DA00003E113E012961C930E93119780E591E0D6
:102DB000938382838C81848315828D81868317829D
:102DC0008E81808711860E943A02EDB7FEB73A964F
:102DD0000FB6F894FEBF0FBEEDBFC40160E070E017
:102DE00041E050E098010E94A4088091D10388231B
:102DF00009F496C08F2D9E2D69E040E00E942D328F
:102E0000D40119968C91882329F08F2D9E2D62E094
:102E10000E94EA31F4018185882329F08F2D9E2DAF
:102E200060E00E94EA318DB79EB708970FB6F8941C
:102E30009EBF0FBE8DBFEDB7FEB7319603E113E025
:102E4000ADB7BEB712961C930E93119780910A02EC
:102E500090910B02938382838091D20384831582A5
:102E60008091D303868317820E943A02EDB7FEB7A2
:102E700038960FB6F894FEBF0FBEEDBFC4016BE0ED
:102E800070E040E050E098010E94A4088F2D9E2D34
:102E900069E041E00E942D32D40119968C9188237B
:102EA00029F08F2D9E2D61E00E94EA31F401818589
:102EB000882329F08F2D9E2D60E00E94EA318DB786
:102EC0009EB708970FB6F8949EBF0FBE8DBFEDB7A3
:102ED000FEB7319603E113E0ADB7BEB712961C936F
:102EE0000E93119780910A0290910B029383828333
:102EF0008091D403848315828091D50386831782C1
:102F00000E943A02EDB7FEB738960FB6F894FEBFAE
:102F10000FBEEDBFC4016BE070E041E050E02AC09D
:102F20008DB79EB708970FB6F8949EBF0FBE8DBFA2
:102F3000EDB7FEB73196ADB7BEB712961C930E93A0
:102F4000119786E192E09383828364821582809157
:102F50008303868317820E943A02EDB7FEB7389644
:102F60000FB6F894FEBF0FBEEDBFC4016AE070E07B
:102F700040E050E098010E94A408ABECB3E0FE01F1
:102F8000319686E001900D928150E1F70BC06623E7
:102F900009F066CB28CEC601B50128E730E040E055
:102FA00050E048CE2C960FB6F894DEBF0FBECDBFD2
:102FB000CF91DF911F910F91FF90EF90DF90CF9015
:102FC000BF90AF909F908F907F906F900895FC017D
:102FD0008485613011F48E7F01C081608487CF01C8
:102FE000642F40E015CBFF920F931F93CF93DF9395
:102FF000EC01F42E8C8D80FD02C080E101C080E5E3
:10300000663030F0861748F068AB00E010E008C08A
:1030100086E088AB01E010E003C088AB02E010E07E
:103020008C8D9D8D68A9F999FECF1FBA8170907023
:1030300092BD81BD60BD0FB6F894FA9AF99A0FBEA1
:1030400088819981019779F5262F30E0C90106978B
:103050008E9760F4B901882777FD8095982F25E831
:1030600030E040E050E00E94943715C0C901C49799
:103070004D97C8F4C901AA2797FDA095BA2F80568D
:103080009F4FAF4FBF4F35E0880F991FAA1FBB1F3F
:103090003A95D1F7BC0170938B0060938A0081E070
:1030A00090E099838883FF2029F08CEA93E061E027
:1030B00040E0AEDAC801DF91CF911F910F91FF90F0
:1030C0000895CF93DF93EC018CEA93E060E070E029
:1030D00041E050E024EF31E00E94A4088C81EF81B0
:1030E000F885E80FF11D60818091B503882339F0E0
:1030F0008CEA93E070E04AE050E00E94FF2E8CEAF8
:1031000093E062E171E00E94B90864EF71E080E051
:1031100090E00E94932A20916F03309170038C817C
:10312000EF81F885E80FF11D6081F999FECF1FBA94
:103130002170307032BD21BD60BD0FB6F894FA9A8F
:10314000F99A0FBE83E593E040E04DDF80ED92E019
:10315000DF91CF910895CF93DF93EC0189A58E3F46
:10316000F9F080E49FE190938B0080938A001982AC
:1031700018828EEF89A78CEA93E060E040E048DA9D
:1031800099A58AA5981721F088EE93E00E94F8246B
:103190008EEF8AA70E94852A6DAB7EAB8FAB98AF6E
:1031A000DF91CF9108950F931F93DF93CF9300D0BA
:1031B00000D000D0CDB7DEB78C01FC018781813013
:1031C00009F07AC00E94023429833A834B835C83DE
:1031D0006D837E83ABECB3E0FE01319686E0019017
:1031E0000D928150E1F78091CE03F80185836091C3
:1031F000CF0366838081882309F45CC02181222368
:1032000051F48281882339F48381882321F48481D5
:10321000882309F44FC0F8013381231729F49281E0
:103220008481981709F446C09CE3299FA0011124CA
:10323000F8018281480F511D399F9001112484812A
:10324000280F311D8581899FC0011124860F911D92
:103250002417350750F48417950718F028173907F5
:1032600050F048175907D8F003C084179507B8F0F5
:1032700082179307B8F480917C038E3FD9F48FEFC7
:1032800080937D0310927C0380E49FE190938B00F8
:1032900080938A0010925403109253030BC082173C
:1032A000930740F02F5F3F4F2817390718F083E549
:1032B00093E051DFF801178226960FB6F894DEBF2F
:1032C0000FBECDBFCF91DF911F910F9108950F9346
:1032D0001F93CF93DF93EC01062FA8950E94FD0A60
:1032E0008881813079F489819A81AB81BC81009792
:1032F000A105B10509F0A6C01882A985BA85109765
:1033000029F40DC0823009F09DC023C0ED91FC91DD
:1033100011970280F381E02DCD01099593C0002320
:1033200009F090C080917C038F3F19F08E3F09F027
:1033300086C08FEF80937D0310927C0380E49FE131
:1033400090938B0080938A00109254031092530341
:1033500079C089819A81AB81BC810097A105B105B3
:1033600009F470C08D839E83AF83B88719821A8257
:103370001B821C82A985BA85109709F44BC0ED9178
:10338000FC9111970480F581E02DCD010995DC01B8
:103390009A8789870097E1F082E0A03DB80719F489
:1033A00014960C911497ED91FC9111970190F08176
:1033B000E02DCD010995E985FA8582E0E03DF80729
:1033C00009F040C001500483CF010E94B9103AC0F7
:1033D0008091D103882321F081E08093D8030FC02E
:1033E0008FEF80937D0310927C0380E49FE19093A4
:1033F0008B0080938A0010925403109253038CEA3E
:1034000093E06B8541E0E3DD8CEA93E061E040E02E
:10341000FFD818C083E593E09EDE8091B8038095C5
:1034200081708B878CEA93E060E041E0D0DD00EDB5
:1034300012E0C8010E94E2101A87098703C083E5E1
:1034400093E089DEDF91CF911F910F91089588EE6F
:1034500093E060E00E94CE2987E093E061E037DFEF
:103460008091100390911103892BB1F70895CF93A8
:10347000DF93EC0189A58F3FE1F010928B00109251
:103480008A0082E090E0998388838FEF89A7CE013C
:103490000E949F0B8CEA93E060E040E0B9D899A5C8
:1034A0008AA5981721F088EE93E00E94F8248FEF08
:1034B0008AA7DF91CF910895EF92FF920F931F9308
:1034C0008C01A895FC0114868DE061E00E94532BCD
:1034D0008DE060E00E94792B85E061E00E94532B33
:1034E00085E060E00E94792BC80160E142E022E0C3
:1034F0000E94CA32C80167E00E947832C80167E0C2
:103500000E94430D43E1E42E43E0F42EC70164EC36
:1035100071E048E050E00E947A01C80160E0A70134
:103520000E94F431C7016CEC71E048E050E00E9469
:103530007A01C80161E0A7010E94F431C70164ED7E
:1035400071E048E050E00E947A01C80162E0A70102
:103550000E94F431C8010E94BF32C80160E070E0EF
:1035600042EF51E00E94860EC80160E070E041E049
:1035700050E029EE31E00E945C0EC80168E670E080
:1035800029D864EC79E080E090E00E94932AA89525
:103590001F910F91FF90EF9008950F931F938C014F
:1035A00060E241E020E00E94863181E1F801868FEF
:1035B0001F910F91089586EA92E09093D102809333
:1035C000D0028DE790E09093D3028093D20220E066
:1035D000322F3F5FE22FF0E0EE0FFF1FEA50FE4F69
:1035E00080819181892B11F0232FF2CF2093D50276
:1035F00082E992E09093D7028093D60283E890E02C
:103600009093D9028093D80288E892E09093DC02EC
:103610008093DB0281E990E09093DE028093DD02EB
:103620008EE792E09093E5028093E4028DE990E0CA
:103630009093E7028093E6028CE992E09093EA028D
:103640008093E9028AEB90E09093EC028093EB0286
:1036500084E792E09093EF028093EE028FE690E091
:103660009093F1028093F0028AE692E09093F40244
:103670008093F30289EA90E09093F6028093F5023A
:1036800080E692E09093F9028093F80289EC90E052
:103690009093FB028093FA0286E592E09093FE02FB
:1036A0008093FD0286ED90E0909300038093FF02EB
:1036B0008CE492E0909303038093020382EE90E007
:1036C000909305038093040310920703109208035C
:1036D0001092090310920A0310920B0310920C032C
:1036E00010920D0310920E0310920F03109211030B
:1036F000109210038CEA93E050DF8BEC93E040E0F3
:1037000050E060E070E00E94613381E08093D80374
:10371000089560916F037091700382E090E042ED34
:1037200057E00C9425020F931F93CF93DF93EC0186
:10373000162F042F8C8D9D8D623021F481609D8F1A
:103740008C8F04C08E7F9D8F8C8F11E0E2DFF99902
:10375000FECF80E090E0113011F081E090E092BD6A
:1037600081BDF89A60B5862F81508E3F20F01130D0
:1037700009F56CE006C0663010F416E00BC011309D
:1037800029F4162F613130F010E104C0162F613595
:1037900008F010E5CE010E944C0DCE01612F40E0F3
:1037A00022DC002349F08CEA93E061E040E00E94D3
:1037B000081302C060E1E3CFDF91CF911F910F9119
:1037C00008955F926F927F928F929F92AF92BF9275
:1037D000CF92DF92EF92FF920F931F93DF93CF93DD
:1037E00000D000D0CDB7DEB76C010E94852A7B01E6
:1037F0008C01D60199965C90BFEF5B1639F465E0B9
:1038000070E080E090E00E94932AFAC3EEEF5E162B
:1038100071F5D6015E968C9186FFF2C3C601BE019A
:103820006F5F7F4FAE014D5F5F4F24E630E00E9437
:10383000100C2B813C81F60181A192A12817390738
:1038400090F485A996A9A7A9B0ADE81AF90A0A0BC0
:103850001B0BF8E8EF16F3E1FF06F0E00F07F0E0CE
:103860001F0708F4CDC3C6010E949F0BC9C383E0A4
:103870000E94D12B4C0184E00E94D12B3C01D60147
:103880005E968C915E9786FF65C0D1968D919D91D5
:103890000D90BC91A02DA8019701281B390B4A0B54
:1038A0005B0BDA01C901895E9340A040B04008F487
:1038B000E3C0D6015C968C9183FD31C0B1E08B16DC
:1038C000910469F5E1E06E16710449F587E0D601CF
:1038D00099968C93C6010E949F0BB7E05B16A1F0EE
:1038E000F60186898E3F80F4282F2F5F268BF99969
:1038F000FECF1FBA82E190E092BD81BD20BD0FB620
:10390000F894FA9AF99A0FBED6011E96ED92FD929E
:103910000D931C93519737E0B32EAA2403C0BB2408
:10392000AA24A394F601868D80FFA9C081A58330C7
:1039300009F0A5C0892831F4672821F4C60162E0A6
:1039400041E0F1DED6015E968C915E978E7F5E96A9
:103950008C9395C0B7E05B1621F5F60186859785B7
:10396000A089B18937014801681A790A8A0A9B0A35
:10397000D401C30181569A4EA040B04060F08289C4
:103980009389A489B5890196A11DB11D828B938B62
:10399000A48BB58B71C0D60199965C9227E0B22EAC
:1039A00062C0F601848D84FD67C0892819F06728FC
:1039B00009F05BC0F8E05F1681F0F6018789908D11
:1039C000A18DB28D0097A105B10539F4D6015796A6
:1039D000ED92FD920D931C935A97F60185A996A935
:1039E000A7A9B0AD37014801681A790A8A0A9B0A6B
:1039F000D401C301895E9340A040B04088F087891C
:103A0000908DA18DB28D37014801681A790A8A0A12
:103A10009B0AD401C301895E9340A040B04020F4CA
:103A200038E0531649F51AC048E05416B9F0D601EB
:103A30005B968C915B978E3F88F4282F2F5F5B9667
:103A40002C93F999FECF1FBA83E190E092BD81BD1E
:103A500020BD0FB6F894FA9AF99A0FBE88E0F601E5
:103A600081A798E0B92EAA240AC0D60157961D92C4
:103A70001D921D921C925A97BB24AA24A394F6016E
:103A80008281882309F462C086E081A7581629F153
:103A900085858E3F80F4282F2F5F2587F999FECFEB
:103AA0001FBA81E190E092BD81BD20BD0FB6F894B0
:103AB000FA9AF99A0FBED60119961D921D921D927F
:103AC0001C921C9780E6682E8AEE782E812C912C11
:103AD000E60CF71C081D191D26C0F601858196818C
:103AE000A781B085E816F9060A071B0708F46BC220
:103AF000C60102960E948D0BF60181859285A385F1
:103B0000B4850196A11DB11D81879287A387B487D3
:103B1000B0E66B2EBAEE7B2E812C912CE60CF71CB6
:103B2000081D191DD6011596ED92FD920D931C935B
:103B30001897A0EA6A2EA5E17A2EAFEF8A2EAFEF92
:103B40009A2EE60CF71C081D191D3DC2AA2009F487
:103B500084C0F6E07F2E571459F0EAE08E2E5814F8
:103B600039F077E0972E591419F028E0521669F4CD
:103B700080E49FE190938B0080938A00D601119698
:103B80001C921E9299961C925524C601BE016F5F2D
:103B90007F4FAE014D5F5F4F24E630E00E94100C76
:103BA000F601448D41FD13C280819181019709F096
:103BB0000EC229813A8187A190A52817390708F4F8
:103BC00006C265E0B62E1BC0D60191968D919C91E0
:103BD00092972817390718F052E0B52E10C0F60159
:103BE00083A194A12817390740F442FFFEC185A1A3
:103BF00096A18217930708F0F8C143E0B42EB514DC
:103C000051F1D6019B968C91B81631F0F601E4A6DD
:103C1000F5A606A717A71FC0F60184A595A5A6A51A
:103C2000B7A5F1E0BF1629F02AEF30E040E050E000
:103C300004C029E130E040E050E037014801681A53
:103C4000790A8A0A9B0A621673068406950618F09A
:103C5000D6019996BC92AA24A394F601B3A681A595
:103C6000851509F4D0C0813069F4C6010E949F0B0C
:103C700080E49FE190938B0080938A00D6011D928F
:103C80001C92C1C0823009F458C08330B1F5F601EE
:103C900080A9282F30E0C90106978E9760F4B901FA
:103CA000882777FD8095982F25E830E040E050E0A8
:103CB0000E94943715C0C901C4974D97D0F4C9012B
:103CC000AA2797FDA095BA2F80569F4FAF4FBF4FA1
:103CD00035E0880F991FAA1FBB1F3A95D1F7BC0189
:103CE00070938B0060938A0081E090E0D6018D9301
:103CF0009C93C6010E94EC0B86C0843069F4C60117
:103D00000E949F0B80E49FE190938B0080938A0038
:103D1000F6011182108277C0863069F4C6010E94D4
:103D20009F0B10928B0010928A0082E090E0D601E7
:103D30008D939C9368C08530A1F5C6010E949F0BAE
:103D4000F60180A9282F30E0C90106978E9760F40C
:103D5000B901882777FD8095982F25E830E040E06D
:103D600050E00E94943716C0C901C4974D9708F0DF
:103D70004AC0C901AA2797FDA095BA2F80569F4F28
:103D8000AF4FBF4F25E0880F991FAA1FBB1F2A9571
:103D9000D1F7BC0170938B0060938A0081E090E0C2
:103DA000C6CF873069F4C6010E949F0B10928B002A
:103DB00010928A0082E090E0F6019183808323C014
:103DC0008830A9F4C6010E949F0B10928B001092BC
:103DD0008A0082E090E0D6018D939C938CEA93E078
:103DE00061E041E00E940813C60131DBFDCF80E4B1
:103DF0009FE190938B0080938A00F60111821082DC
:103E0000C6010E949F0BAA20F1F4F3E05F16D9F4DB
:103E1000F60181A992A9A3A9B4A9E81AF90A0A0B83
:103E20001B0BF1EDEF16F7E0FF06F0E00F07F0E0F7
:103E30001F0748F48CEA93E061E041E00E94081318
:103E4000C60105DBFDCFD6019A965C929A979996AA
:103E50008C91833071F4E7E5F0E0CE0EDF1ED601E1
:103E60008D919C91E9EAFFEFCE0EDF1E1816190620
:103E70002CF0D6015E968C9184FF74C0C6010E941E
:103E8000450CEDE4F0E0CE0EDF1ED6012D913D9104
:103E90004D915C91E3EBFFEFCE0EDF1E8091E303CB
:103EA000882341F41092E4031092E5031092E60394
:103EB0001092E703E090E403F090E5030091E6033D
:103EC0001091E703E20EF31E041F151FE092E403B6
:103ED000F092E5030093E6031093E7038091E30378
:103EE0008F5F8093E3038032E9F51092E30385E06E
:103EF00016950795F794E7948A95D1F7B7E56B2E59
:103F0000712CC60CD71CD6012D913C91442737FD4E
:103F10004095542FC801B7010E949437F6013291A1
:103F200022916F01ABEA6A2EAFEF7A2EC60CD71C36
:103F3000442737FD4095542F620F731F841F951F30
:103F4000F601EF5AFF4F608371838283938397FF5B
:103F500004C010821182128213828091B80380689B
:103F60008093B803D60199968C91833009F048C0AC
:103F700086010F5B1F4FF80180819181A281B3817F
:103F8000F5E46F2E712CC60CD71CF601808391834B
:103F9000A283B383EBEB6E2EEFEF7E2EC60CD71C05
:103FA0000E943D36D601D9962D913D914D915C915F
:103FB000DC97621B730B840B950BF8016083718394
:103FC000828393831DC076E0B72EAA2446CE2B8130
:103FD0003C81D6015F968D919C9190972817390767
:103FE00008F4F2CDBB24B3940ACEF60185A196A1C4
:103FF0008217930710F0BB2402CE64E0B62EFFCDEB
:104000000F900F900F900F90CF91DF911F910F9114
:10401000FF90EF90DF90CF90BF90AF909F908F90E8
:104020007F906F905F900895A89588EE93E061E08F
:104030000E94CE2983E593E0C4DB8CEA93E060E044
:1040400040E00E94081387E093E060E040D980914F
:10405000100390911103892BB1F781ED93E0A3C870
:10406000DF92EF92FF920F931F93CF93DF93EC01B8
:1040700082E090E06AEC77E00E94E9018C012FEF8A
:104080008F3F920741F090FF06C08CEA93E060E01A
:1040900041E00E94E71788E061E00E94532B87E02F
:1040A00061E00E94532B89E061E00E94532B83E082
:1040B00060E00E94532B84E060E00E94532B83E079
:1040C00061E00E94792B84E061E00E94792BCE01AF
:1040D0000E949F0B1092800020E43FE13093870004
:1040E0002093860081E180938100229A8091800054
:1040F00080628093800030938B0020938A00198225
:1041000018828FEF0F3F180719F41D8E1C8E07C001
:104110001D8F0C8F00FD03C0DD24D39402C052E03C
:10412000D52E8BE090E06AEC77E00E94E9018C01EB
:1041300045E5E42EF12CEC0EFD1EF7019183808302
:1041400089E090E06AEC77E00E94E901C95ADF4F0C
:1041500099838883C755D0400F5F1F4F19F4F7012B
:1041600011821082FE01E95AFF4F808191818F5F99
:104170009F4F21F48CED90E091838083C35BDF4FF0
:104180001992199219921992188219821A821B8215
:10419000C155D0401E8E19861A861B861C86F99939
:1041A000FECF81E190E092BD81BDF89A80B58D8708
:1041B0008F3F09F41D861A8A1B8A1C8A1D8AF99969
:1041C000FECF82E190E092BD81BDF89A80B58E8BE2
:1041D0008F3F09F01E8A1F8A188E198E1A8EF99940
:1041E000FECF83E190E092BD81BDF89A80B58B8FC0
:1041F0008F3F09F01B8E1A8A1B8A1C8A1D8A1E8615
:104200001F86188A198A19A61AA6CE010E941011B3
:10421000382F9C8D95FD04C08150823008F4D32E38
:1042200093FD06C0333021F487E089A721E001C067
:1042300020E08C8D84FD05C0343019F488E089A716
:1042400021E08C8D9D8D91FD05C0353019F489E0FC
:1042500089A702C0222399F00E94852A7B018C0144
:1042600002C0CE01F4D80E94852A6E197F09800B06
:10427000910B60567A4E8040904070F7F2CFCE019D
:104280006D2D40E050DACE0102960E948D0B8C8D90
:1042900086FD0CC08FEF8AA719A680E49FE190935A
:1042A0008B0080938A001982188203C0CE010E947D
:1042B000AB188DE060E00E94792BDF91CF911F91C8
:1042C0000F91FF90EF90DF90089587E095E00E94B6
:1042D00007310E94003481ED93E00E9411088CEABE
:1042E00093E0EAD883E593E0BBCE88E10FB6F8947B
:1042F00080936000109260000FBE68EC70E080E078
:1043000090E00E94932A8EEA94E040E052EC61E053
:1043100070E00E94D22C87E093E00E94850B80E041
:104320006EEC7BE043E050E00E94242CCEDF2FE0D7
:1043300088E190E00FB6F894A895809360000FBED6
:10434000209360008DE090E06AEC77E00E94C3016A
:104350006F5F7F4F8F4F9F4F51F48DE090E040E0B3
:1043600050E060E070E022ED37E00E94FF018DE058
:1043700090E06AEC77E00E94C3016093DB037093E6
:10438000DC038093DD039093DE0308950E94F62AF8
:10439000ACDF4ADEFECF1F93CF93DF93EC01162FE5
:1043A0008CEA93E00E94E7178C8D9D8D112311F408
:1043B000916001C09E7F9D8F8C8FABD98EEA94E077
:1043C0006FE571E00E940E2E6C8D7D8D8EEA94E07B
:1043D00040E150E00E94BB2E80E090E0DF91CF9161
:1043E0001F910895CF93DF93EC018CEA93E060E096
:1043F00070E041E050E024EF31E00E94A408EC813D
:10440000F0E0EE0FFF1FEC5DFD4F608171818CEAE3
:1044100093E00E94B90860E08C81882309F461E090
:1044200083E593E040E0B7DF90E08C81882309F4D6
:1044300091E0909312038CEA93E060E040E00E94E8
:10444000E71764EF71E080E090E00E94932A80ED2E
:1044500092E0DF91CF910895FC01848D958D6623C4
:1044600011F08F7B01C08064958F848F52C9FC014D
:10447000848D958D662311F08F7D01C08062958FAC
:10448000848F47C9CF93DF93EC016C81662321F4BD
:1044900083E593E061E007C083E593E040E043D922
:1044A00083E593E060E0E3DF8CEA93E060E070E0B6
:1044B00041E050E024EF31E00E94A408EC81F0E0FC
:1044C000EE0FFF1FE25EFD4F608171818CEA93E089
:1044D0000E94B9081ED964EF71E080E090E00E946C
:1044E000932A80ED92E0DF91CF910895FC01848DB5
:1044F000958D662311F08F7E01C08061958F848F2A
:1045000008C90F931F938C018CEA93E060E070E080
:1045100041E050E024EF31E00E94A408D801149655
:10452000EC91F0E0EE0FFF1FE15CFD4F60817181C7
:104530008CEA93E00E94B90860E0F8018481882346
:1045400009F461E083E593E0D1DF64EF71E080E09E
:1045500090E0E9D780ED92E01F910F910895FC0162
:10456000848D958D662311F0877F09C0128A138A86
:10457000148A158A16861786108A118A8860958F84
:10458000848FC7C80F931F938C018CEA93E060E07F
:1045900070E041E050E024EF31E00E94A408D8012F
:1045A0001496EC91F0E0EE0FFF1FE15CFD4F60818F
:1045B00071818CEA93E00E94B90860E0F80184817F
:1045C000882309F461E083E593E0C9DF64EF71E0DB
:1045D00080E090E0A8D780ED92E01F910F910895C0
:1045E000FC01848D958D662311F08B7F01C0846062
:1045F000958F848F8EC80F931F938C018CEA93E064
:1046000060E070E041E050E024EF31E00E94A40857
:10461000D8011496EC91F0E0EE0FFF1FE15CFD4F26
:10462000608171818CEA93E00E94B90860E0F80132
:104630008481882309F461E083E593E0D1DF64EFAE
:1046400071E080E090E06FD780ED92E01F910F91D4
:104650000895FC01848D958D662311F09D7F01C026
:104660009260958F848F55C80F931F938C018CEAAD
:1046700093E060E070E041E050E024EF31E00E9420
:10468000A408D8011496EC91F0E0EE0FFF1FE15C56
:10469000FD4F608171818CEA93E00E94B90860E06F
:1046A000F8018481882309F461E083E593E0D1DF98
:1046B00064EF71E080E090E036D780ED92E01F91EA
:1046C0000F910895FC01848D958D662311F08D7FE7
:1046D00001C08260958F848F1CC80F931F938C013B
:1046E0008CEA93E060E070E041E050E024EF31E0DC
:1046F0000E94A408D8011496EC91F0E0EE0FFF1F81
:10470000E15CFD4F608171818CEA93E00E94B90801
:1047100060E0F8018481882309F461E083E593E097
:10472000D1DF64EF71E080E090E0FDD680ED92E0B3
:104730001F910F91089580916F03909170032091C4
:104740008303F999FECF1FBA8170907092BD81BD2D
:1047500020BD0FB6F894FA9AF99A0FBE0C94891BF3
:10476000FC011082F999FECF1FBA84E090E092BD5F
:1047700081BD10BC0FB6F894FA9AF99A0FBE83E582
:1047800093E061E069DED7DF8CEA93E061E040E02E
:104790000C9408131F93CF93DF93EC0181E088837F
:1047A000F999FECF1FBA84E090E092BD81BD11E07F
:1047B00010BD0FB6F894FA9AF99A0FBE83E593E00C
:1047C00060E04ADEB8DF1F83CE010E94D3188CEA76
:1047D00093E061E040E00E940813DF91CF911F91C8
:1047E0000895AF92BF92CF92EF920F93DF93CF9342
:1047F00000D000D000D0CDB7DEB7382F562FE42F31
:10480000F22FA02FCE2C5E010894A11CB11CC50173
:10481000632F70E0452F2E2F0F2FEA2E0E94EC33CE
:10482000C5010E94B33426960FB6F894DEBF0FBEC2
:10483000CDBFCF91DF910F91EF90CF90BF90AF9010
:10484000089568E670E00C948E019C01F999FECF02
:104850001FBA32BD21BD60BD0FB6F894FA9AF99A1D
:104860000FBE0895BC0120E040E050E004C0229556
:10487000207F41E050E0FB01E40FF51FE0818E2F27
:1048800080538A3010F4280F06C08E2F8154863052
:1048900010F4E7532E0F4130510549F7822F089548
:1048A0001F93CF93DF93DC01019690969C938E9398
:1048B0005F9781E0D3968C93D39711961C911197B3
:1048C0001C5DED0122969D012D5F3F4F21C080327E
:1048D000A1F4105E1882D3968C91D397E82FFF270E
:1048E000E7FDF095EE0FFF1FEA0FFB1F30A3278FA8
:1048F0008F5FD3968C93D39708C08A3229F4FE0138
:104900001192CF01AFDF07C0180F21962F5F3F4FE5
:1049100088818823E1F620E030E0181711F021E0CB
:1049200030E0C901DF91CF911F91089510921C04CE
:104930001092E8031092060408951F93CF93DF931B
:10494000EC01162F8EEA94E064E20E948A2D112376
:1049500019F46CEA71E002C060EB71E08EEA94E059
:104960000E94D72D8E8D882329F08EEA94E0BE0117
:104970000E94D72D8EEA94E06DE00E948A2DDF918F
:10498000CF911F9108950F931F938DB79EB70A97EC
:104990000FB6F8949EBF0FBE8DBFEDB7FEB7319630
:1049A00003E113E0ADB7BEB712961C930E931197B7
:1049B00084EB91E09383828384E290E09583848307
:1049C000668317828DE090E0918780870E943A028B
:1049D0008DB79EB70A960FB6F8949EBF0FBE8DBFD7
:1049E0008EEA94E0B8010E94D72D1F910F9108958F
:1049F0000F931F938DB79EB70A970FB6F8949EBF7B
:104A00000FBE8DBFEDB7FEB7319603E113E0ADB732
:104A1000BEB712961C930E93119780EC91E093838E
:104A2000828384E290E09583848380917C038683F3
:104A300017828DE090E0918780870E943A028DB7BF
:104A40009EB70A960FB6F8949EBF0FBE8DBF8EEA32
:104A500094E0B8010E94D72D1F910F910895CF9235
:104A6000DF92EF92FF920F931F93DF93CF9300D0CB
:104A7000CDB7DEB76C01DC015E961C925E975F9647
:104A8000ED91FC9190978081873409F442C383357E
:104A900009F4A1C0863409F066C481818534A1F18E
:104AA000863434F4823471F0843409F05CC427C055
:104AB000823509F488C0833509F488C0803509F04F
:104AC00052C427C0F60181A192A19C01F90160E0C6
:104AD0002AE007C0629F802D1124692F6053680F60
:104AE000319690819923B1F78091B80380FF02C07D
:104AF000611167E08CEA93E00E94783230C483E56C
:104B000093E00E94371A2BC483E593E00E94DF07ED
:104B100026C4D60191968C91919792969C919C0176
:104B2000F90160E02AE007C0629F802D1124692FFF
:104B30006053680F319690819923B1F7F60183A1F4
:104B400094A19C01F90140E02AE007C0429F802D1A
:104B50001124492F4053480F319690819923B1F782
:104B600084E090E09A83898320E20EC0EE0FFF1F5D
:104B7000EC0DFD1D078CF0A1E02D3197208389817C
:104B80009A8101969A838983E981FA81D601D39625
:104B90008C91D397992787FD9095E817F90734F3FF
:104BA00095960D911C9196978091B503882309F4F1
:104BB000D6C38CEA93E00E942D328CEA93E0B801D0
:104BC0000E940E2ECCC30E94A612C9C383E593E0B7
:104BD0000E94AB18C4C38181853409F46EC1863448
:104BE000ACF4823309F4BDC0833334F4803339F13B
:104BF000813309F0B8C335C0833409F428C1843443
:104C00000CF04AC1813409F0AEC3BEC0823509F44C
:104C10009CC1833554F4873409F462C187340CF4A1
:104C2000A5C18C3409F09FC36CC1843509F4B2C1AD
:104C300084350CF49BC1863509F095C359C2F60141
:104C400083A9823009F08FC360E001A0F2A1E02DBA
:104C50008081803309F061E083E593E041E09BDBF4
:104C600016C1D601D3968C91D397873009F07BC3B8
:104C700091968C91919792969C919C01F90170E08C
:104C80002AE007C0729F802D1124792F7053780F6E
:104C9000319690819923B1F7F60183A194A19C01EB
:104CA000F90160E02AE007C0629F802D1124692F7E
:104CB0006053680F319690819923B1F7D60195968C
:104CC0008C91959796969C919C01F90140E02AE081
:104CD00007C0429F802D1124492F4053480F319621
:104CE00090819923B1F7F60187A190A59C01F90164
:104CF00050E02AE007C0529F802D1124592F5053B5
:104D0000580F319690819923B1F7D60199968C91DD
:104D100099979A969C919C01F90100E02AE007C0BE
:104D2000029F802D1124092F0053080F3196908186
:104D30009923B1F7F60183A594A59C01F90190E0B0
:104D40003AE007C0939F802D1124922F9053980F23
:104D5000319620812223B1F7872F252FE92E41DDBF
:104D6000FEC2D601D3968C91D397823009F0FBC254
:104D70009196ED91FC9192978081813309F008C35F
:104D800080917103806107C3F60183A9833009F024
:104D9000EAC200D000D000D0EDB7FEB73196D60100
:104DA00091968D919C919297ADB7BEB712969C93B8
:104DB0008E9311972CECE22E21E0F22EF382E28208
:104DC0008E010F5F1F4F158304830E945D0269816E
:104DD0007A817093AB036093AA03EDB7FEB7369662
:104DE0000FB6F894FEBF0FBEEDBF89E090E045E23C
:104DF00054E20E94250200D000D000D0EDB7FEB7EB
:104E00003196D60193968D919C919497ADB7BEB78C
:104E100012969C938E931197F382E28215830483FA
:104E20000E945D0269817A817093A9036093A8034F
:104E3000EDB7FEB736960FB6F894FEBF0FBEEDBFC6
:104E40008BE090E045E254E20E94250288C2D60140
:104E5000D3968C91D397823009F085C291968C912C
:104E6000919792969C919C01F90160E02AE007C01D
:104E7000629F802D1124692F6053680F31969081B5
:104E80009923B1F783E593E041E00E94F3178C0189
:104E9000009709F062C263C2F60183A9823009F06B
:104EA00062C260E001A0F2A1E02D8081803309F0B0
:104EB00061E083E593E006DC52C2D601D3968C9183
:104EC000D397823009F04FC290E09196ED91FC911A
:104ED00092978081803309F091E0F60194AB3FC254
:104EE000F60183A9823009F03EC260E001A0F2A180
:104EF000E02D8081803309F061E083E593E02FDBD2
:104F00002EC2D601D3968C91D397823009F02BC252
:104F10009196ED91FC919297608161330CF423C2DC
:104F2000633324F0613409F01EC20AC0605383E584
:104F300093E041E00E94931B83E593E060E003C0AF
:104F400083E593E061E093DA0AC2F60183A9823037
:104F500009F009C260E001A0F2A1E02D8081803358
:104F600009F061E083E593E0C1DAF9C1D601D39697
:104F70008C91D397823009F0F6C160E09196ED9163
:104F8000FC9192978081803309F061E083E593E0A2
:104F900060DBE5C1F60183A9853009F0E4C1A1A178
:104FA000B2A18C91803301F583A194A1FC01808191
:104FB0008033D1F4F60185A196A1FC018081803374
:104FC00099F4F60187A190A5FC018081803361F4FA
:104FD00081ED93E0C5DBC3C1429F802D1124492F91
:104FE0004053480F319603C0FD0140E02AE0908114
:104FF000992391F7D60193968C91939794969C91CF
:105000009C01F90120E03AE007C0239F802D112484
:10501000292F2053280F319690819923B1F740937F
:10502000D2032093D303F999FECF1FBA85E090E015
:1050300092BD81BD40BD0FB6F894FA9AF99A0FBEA1
:10504000F999FECF1FBA86E090E092BD81BD20BDE8
:105050000FB6F894FA9AF99A0FBE6DDBF60125A106
:1050600036A1C901FC0140E02AE007C0429F802D23
:105070001124492F4053480F319690819923B1F75D
:10508000D60197968C91979798969C919C01F901DF
:1050900020E03AE007C0239F802D1124292F2053C0
:1050A000280F319690819923B1F74093D403209330
:1050B000D503F999FECF1FBA87E090E092BD81BD7C
:1050C00040BD0FB6F894FA9AF99A0FBEF999FECF3F
:1050D0001FBA88E090E092BD81BD20BD0FB6F89464
:1050E000FA9AF99A0FBE27DB81ED93E053DB37C1C3
:1050F000F60183A9823009F036C160E001A0F2A177
:10510000E02D8081803309F061E083E593E068DA87
:1051100026C18181863409F48BC087344CF48334F2
:10512000C9F1853409F466C0813409F01CC110C08E
:10513000833509F4CEC0843524F4873409F013C1D3
:10514000A9C0843509F4F1C0863509F00CC1F5C059
:105150002091AA033091AB033A8329838DB79EB780
:1051600008970FB6F8949EBF0FBE8DBFEDB7FEB780
:105170003196ADB7BEB71296DC92CE9211978FECF6
:1051800091E093838283358324838091A803909157
:10519000A9034BC080916F0380FD03C020E130E084
:1051A00002C020E530E0ADB7BEB718970FB6F8944F
:1051B000BEBF0FBEADBFEDB7FEB731961296DC9203
:1051C000CE9211978FEC91E09383828386E090E0FA
:1051D00095838483378326830E943A0281E0F60117
:1051E000868F8DB79EB708960FB6F8949EBF0FBEF8
:1051F0008DBFB5C0ADB7BEB718970FB6F894BEBF98
:105200000FBEADBFEDB7FEB731961296DC92CE92CF
:10521000119785ED91E0938382838091830384834A
:10522000158280916F039091700397838683D4CF0A
:10523000F999FECF81E190E092BD81BDF89A40B529
:10524000F999FECF82E190E092BD81BDF89A30B528
:10525000F999FECF83E190E092BD81BDF89A20B527
:10526000ADB7BEB71A970FB6F894BEBF0FBEADBFAD
:10527000EDB7FEB731961296DC92CE9211978DED76
:1052800091E093838283448315823683178220873B
:10529000118642C000D000D000D0EDB7FEB73196E5
:1052A000ADB7BEB71296DC92CE92119786EE91E022
:1052B000938382838091A4039091A5039583848333
:1052C0000E943A0281E0F601868F8DB79EB706965E
:1052D0008BCFADB7BEB71A970FB6F894BEBF0FBE4F
:1052E000ADBFEDB7FEB731961296DC92CE92119714
:1052F00089EE91E09383828380917C03848315827D
:105300008091940390919503A0919603B091970397
:1053100086839783A087B1870E943A0281E0F601D5
:10532000868F8DB79EB70A965FCFC6010E94480A46
:1053300081E0D6015E968C9312C0C60182DAC60166
:1053400060EF71E00E94B101C60160E172E00E946D
:10535000830181E0F601868F02C060E007C061E052
:1053600000E010E003C060E00FEF1FEFC601E5DAD8
:10537000D6011C925E961C92C8010F900F90CF919F
:10538000DF911F910F91FF90EF90DF90CF900895E4
:10539000809171038F7E80937103E1CFAF92BF92B2
:1053A000CF92DF92EF92FF920F931F93CF93DF93F1
:1053B000EC01662341F090917C0380917D03981766
:1053C00011F0CE0115DB8EEA94E049D35C01009721
:1053D00021F451E0E52EF12C44C041E0E42EF12C03
:1053E000CC24DD2401E039C08EEA94E063D3182F89
:1053F0008CA9882321F08EEA94E0612F8BD314329C
:1054000019F418830E8F26C08881843219F58E8D89
:105410008E31F4F4E82FFF27E7FDF0958F5F1D3004
:1054200091F4EC0FFD1F10828E8FCE0139DA892B9B
:1054300021F4CE0114DB7C010DC018821E8ECE013A
:1054400060E07BDA07C0EC0FFD1F10838E8F02C077
:1054500018821E8E0894C11CD11CCA14DB040CF4E3
:10546000C3CFC701DF91CF911F910F91FF90EF90B4
:10547000DF90CF90BF90AF9008951F920F920FB61C
:105480000F9211242F933F938F939F93AF93BF93CA
:105490008091210490912204A0912304B0912404CE
:1054A000309125040196A11DB11D232F2D5F2D37AD
:1054B00020F02D570196A11DB11D20932504809346
:1054C000210490932204A0932304B0932404809198
:1054D0001D0490911E04A0911F04B0912004019618
:1054E000A11DB11D80931D0490931E04A0931F0461
:1054F000B0932004BF91AF919F918F913F912F91D5
:105500000F900FBE0F901F9018958FB7F8942091B1
:1055100021043091220440912304509124048FBF30
:10552000B901CA0108959B01AC017FB7F89480913D
:105530001D0490911E04A0911F04B091200466B533
:10554000A89B05C06F3F19F00196A11DB11D7FBF3B
:10555000BA2FA92F982F8827860F911DA11DB11D45
:1055600062E0880F991FAA1FBB1F6A95D1F7BC0183
:105570002DC0FFB7F89480911D0490911E04A09156
:105580001F04B0912004E6B5A89B05C0EF3F19F0B9
:105590000196A11DB11DFFBFBA2FA92F982F8827F3
:1055A0008E0F911DA11DB11DE2E0880F991FAA1F4A
:1055B000BB1FEA95D1F7861B970B885E9340C8F214
:1055C000215030404040504068517C4F21153105FA
:1055D0004105510571F60895019739F0880F991F1B
:1055E000880F991F02970197F1F70895789484B571
:1055F000826084BD84B5816084BD85B5826085BDCF
:1056000085B5816085BDEEE6F0E0808181608083B4
:10561000E1E8F0E010828081826080838081816097
:105620008083E0E8F0E0808181608083E1EBF0E05E
:10563000808184608083E0EBF0E080818160808302
:10564000EAE7F0E0808184608083808182608083EB
:105650008081816080838081806880831092C10016
:105660000895982F8E3008F09E50977080914302D5
:105670008295880F880F807C892B80937C00809195
:105680007A00806480937A0080917A0086FDFCCF56
:105690002091780040917900942F80E030E0282B11
:1056A000392BC9010895482F50E0CA018C5A9D4FEB
:1056B000FC012491405C5D4FFA0184918823C1F084
:1056C000E82FF0E0EE0FFF1FEE5DFD4FA591B491C6
:1056D000662341F49FB7F8948C91209582238C9394
:1056E0009FBF08959FB7F8948C91822B8C939FBF96
:1056F0000895482F50E0CA0188599D4FFC0124911C
:10570000CA018C5A9D4FFC013491405C5D4FFA01F7
:105710009491992309F444C0222351F1233071F06C
:10572000243028F42130A1F0223011F514C02630A5
:10573000B1F02730C1F02430D9F404C0809180004A
:105740008F7703C0809180008F7D8093800010C090
:1057500084B58F7702C084B58F7D84BD09C08091E8
:10576000B0008F7703C08091B0008F7D8093B00030
:10577000E92FF0E0EE0FFF1FE45DFD4FA591B4911E
:10578000662341F49FB7F8948C91309583238C93D2
:105790009FBF08959FB7F8948C91832B8C939FBFE4
:1057A0000895682F70E0CB0188599D4FFC0124912A
:1057B000CB018C5A9D4FFC014491605C7D4FFB01F5
:1057C0009491992319F420E030E03CC0222351F158
:1057D000233071F0243028F42130A1F0223011F56B
:1057E00014C02630B1F02730C1F02430D9F404C001
:1057F000809180008F7703C0809180008F7D80939F
:10580000800010C084B58F7702C084B58F7D84BDC1
:1058100009C08091B0008F7703C08091B0008F7D68
:105820008093B000892F90E0880F991F8A5C9D4F6C
:10583000FC01A591B4918C9120E030E0842311F01B
:1058400021E030E0C9010895823000F5E82FF0E052
:10585000EE0FFF1FEA5DFB4F71836083882319F011
:105860008130A1F408C0809169008C7F842B8093E3
:105870006900E89A089580916900440F551F440F0C
:10588000551F837F842B80936900E99A08951F92A6
:105890000F920FB60F9211242F933F934F935F9364
:1058A0006F937F938F939F93AF93BF93EF93FF93E8
:1058B0008091260490912704892B29F0E0912604F9
:1058C000F09127040995FF91EF91BF91AF919F91BE
:1058D0008F917F916F915F914F913F912F910F9099
:1058E0000FBE0F901F9018951F920F920FB60F9238
:1058F00011242F933F934F935F936F937F938F93D5
:105900009F93AF93BF93EF93FF938091280490915F
:105910002904892B29F0E0912804F09129040995A4
:10592000FF91EF91BF91AF919F918F917F916F9177
:105930005F914F913F912F910F900FBE0F901F904D
:1059400018951F920F920FB60F9211242F933F9329
:105950004F938F939F93EF93FF934091C600E091F5
:10596000AA04F091AB0431969F012F7730703197E4
:105970008091AC049091AD042817390739F0E65DA9
:10598000FB4F40833093AB042093AA04FF91EF9127
:105990009F918F914F913F912F910F900FBE0F903C
:1059A0001F901895CF93DF93EC019A01AB01E88526
:1059B000F985203081EE380780E0480780E05807FD
:1059C00009F449C081E090E00A8802C0880F991F5D
:1059D0000A94E2F7808360E079E08DE390E00E9432
:1059E000E1372150304040405040CA01B90122E027
:1059F00030E040E050E00E94E137EC81FD813083EF
:105A0000EE81FF812083EA85FB85208141E050E023
:105A1000CA010E8402C0880F991F0A94E2F7282B4E
:105A20002083EA85FB852081CA010F8402C0880F8C
:105A3000991F0A94E2F7282B2083EA85FB85808151
:105A4000088802C0440F551F0A94E2F7842B808314
:105A5000DF91CF910895108220E130E0CECFDC01BC
:105A60001296ED91FC911397E058FF4F21913191DF
:105A700080819181281B390B2F773070C9010895DF
:105A8000DC011296ED91FC911397EE57FF4F2081A8
:105A9000318192918291E058F0408217930719F476
:105AA0002FEF3FEF05C0E20FF31F8081282F30E07A
:105AB000C9010895DC011296ED91FC911397DF0165
:105AC000AE57BF4F2D913C911197E058FF4F808109
:105AD0009181E058F0408217930719F42FEF3FEFC0
